:020000040800F2
:10000000C06700201D2300082D400008394000086B
:10001000414000084940000851400008000000002D
:100020000000000000000000000000005142000835
:10003000594000080000000075430008B143000863
:100040008D2300088D2300088D23000885400008BB
:100050008D2300088D2300088D23000865400008CB
:100060008D2300088D2300088D2300088D230008B0
:100070008D2300088D2300088D2300088D230008A0
:100080008D2300088D2300088D2300088D23000890
:100090008D2300088D2300088D2300088D23000880
:1000A0008D2300088D2300088D2300088D23000870
:1000B0008D2300088D2300088D2300088D23000860
:1000C0008D2300088D2300088D2300088D23000850
:1000D0008D2300088D2300088D2300088D23000840
:1000E0008D2300088D2300088D23000800000000E8
:1000F0000000000000000000000000000000000000
:1001000000000000000000008D2300088D2300087F
:100110008D2300088D2300088D2300088D230008FF
:100120008D2300088D2300088D2300088D230008EF
:100130008D2300088D2300088D2300088D230008DF
:100140008D2300088D2300088D2300088D230008CF
:100150005FF808F180B483B000AF02460B46FA8026
:100160007B717B79002B0ED04FF42053C4F2000337
:100170004FF42052C4F20002128891B2FA880A4366
:1001800092B21A8010E04FF42053C4F200034FF4EF
:100190002052C4F20002128891B2FA886FEA020279
:1001A00092B20A4092B21A8007F10C07BD4680BC99
:1001B000704700BF80B400AF4FF42053C4F2000377
:1001C0004FF42052C4F20002928892B242F0100220
:1001D00092B29A80BD4680BC704700BF80B400AF29
:1001E0004FF42053C4F200034FF42052C4F2000233
:1001F000928892B222F0100292B29A80BD4680BCE0
:10020000704700BF80B483B000AF4FF00003FB80A5
:100210004FF42053C4F200039B8BFB804FF4205318
:10022000C4F200031B8B9BB24FEA0342FB881343CB
:10023000184607F10C07BD4680BC704780B582B0F8
:1002400000AF7860FFF7B6FF4FF42053C4F200030D
:100250007A6802F470224FEA124292B21A814FF485
:100260002053C4F200037A6892B29A81FFF7B6FF76
:1002700007F10807BD4680BD80B400AF00BF4FF452
:100280002053C4F200039B889BB203F02003002B91
:10029000F5D0BD4680BC704780B400AF4FF420530A
:1002A000C4F200034FF42052C4F20002928892B2CA
:1002B00022F0080292B29A8000BF4FF42053C4F299
:1002C00000039B889BB203F00803002BF5D0BD46CA
:1002D00080BC704780B485B000AF0346FB804FF010
:1002E0000003FB734FF42053C4F200039B889BB2BE
:1002F000DAB2FB88DBB21340FB734FF42053C4F235
:1003000000031B889AB2FB8813409BB2002B06D0D7
:10031000FB7B002B03D04FF00103FB7302E04FF097
:100320000003FB73FB7B184607F11407BD4680BC36
:10033000704700BF80B483B000AF0346FB804FF42A
:100340002053C4F200034FF42052C4F200029288FA
:1003500091B2FA886FEA020292B20A4092B29A808F
:1003600007F10C07BD4680BC704700BF80B500AFE9
:1003700000F098F94FF004004FF0010101F020FF68
:100380004FF008004FF0010101F01AFF4FF010008C
:100390004FF0010101F014FF4FF020004FF0010178
:1003A00001F00EFF4FF040004FF0010101F008FF97
:1003B0004FF480504FF0010101F002FF4FF48040F4
:1003C0004FF0010101F026FF4FF400704FF00101E2
:1003D00001F0F6FE4FF0C0504FF0010101F01AFF9E
:1003E0004FF001004FF0010101F0EAFE00F0A4F827
:1003F00000F02AF900F06AF903F05CFE04F0A8F9B5
:1004000080BD00BF80B586B000AF4FF000037B60B9
:100410004FF000033B724FF001037B724FF46023F7
:10042000FB604FF000033B614FF001033B7507F1A8
:1004300004034FF41050C4F20100194602F0E2FD2B
:100440004FF41050C4F201004FF00A014FF00102C6
:100450004FF0050302F0A2FE4FF41050C4F2010069
:100460004FF0010102F026FE4FF41050C4F20100DB
:1004700002F03CFE00BF4FF41050C4F2010002F045
:1004800055FE0346002BF6D14FF41050C4F2010084
:1004900002F03CFE00BF4FF41050C4F2010002F025
:1004A00045FE0346002BF6D14FF41050C4F2010074
:1004B0004FF0010102F056FE07F11807BD4680BD5E
:1004C00080B586B000AF4FF40043BB804FF000030F
:1004D000FB804FF400633B814FF000037B814FF0C2
:1004E0000003BB814FF00003FB814FF038033B82D8
:1004F0004FF000037B824FF00703BB8207F1040338
:100500004FF46050C4F20000194604F005F84FF4AF
:100510006050C4F200004FF0010104F06FF84FF496
:100520006050C4F200004FF0010104F039F807F107
:100530001807BD4680BD00BF80B584B000AF4FF046
:100540001C03BB814FF01003FB734FF00303BB731D
:1005500007F10C034FF4C050C4F20100194601F03A
:10056000F3F84FF47F43BB814FF00303BB734FF0AD
:100570001003FB7307F10C034FF44060C4F2010059
:10058000194601F0E1F84FF00203BB814FF004037C
:10059000FB7307F10C034FF44060C4F201001946ED
:1005A00001F0D2F84FF001004FF0010101F034FAF0
:1005B0004FF0F003BB814FF00303BB734FF0180300
:1005C000FB7307F10C034FF40060C4F201001946FD
:1005D00001F0BAF84FF47043BB814FF00303BB73D3
:1005E0004FF01803FB7307F10C034FF44060C4F2A3
:1005F0000100194601F0A8F84FF00703BB814FF046
:100600000003FB734FF00303BB7307F10C034FF4BC
:100610008050C4F20100194601F096F84FF0020331
:100620007B604FF000033B724FF00C037B724FF086
:100630000103BB7207F10403184601F0ABFE07F19A
:100640001007BD4680BD00BF80B582B000AF4FF43B
:10065000C06003F0D9FE4FF003033B714FF001037C
:100660007B714FF00003BB714FF00103FB7107F189
:100670000403184603F0DCFE4FF007033B714FF014
:100680000F037B714FF00F03BB714FF00103FB7140
:1006900007F10403184603F0CBFE07F10807BD4637
:1006A00080BD00BF80B500AF4FF0000001F080FBBF
:1006B0004FF0000001F0BCFB4FF4806001F098FBAC
:1006C0004FF4404001F0D6FB80BD00BF80B584B040
:1006D00000AF4FF4E1333B604FF00003BB804FF0BD
:1006E0000003FB804FF000033B814FF00003BB8110
:1006F0004FF00C037B813B464FF00000194600F0A1
:10070000AFF907F11007BD4680BD00BF80B500AF4F
:100710004FF48053C4F202034FF48052C4F2020239
:10072000126842F001021A604FF48052C4F20202D1
:100730004FF48053C4F2020359684FF00003CFF224
:10074000FF030B4053604FF48053C4F202034FF495
:100750008052C4F20202126822F0847222F48032C3
:100760001A604FF48053C4F202034FF48052C4F273
:100770000202126822F480221A604FF48053C4F2FD
:1007800002034FF48052C4F20202526822F4FE02C5
:100790005A604FF48053C4F202034FF48052C4F203
:1007A0000202126822F0A0521A604FF48053C4F281
:1007B00002034FF47F029A604FF48053C4F20203A5
:1007C0004FF00002DA6200F009F84FF46D43CEF208
:1007D00000034FF000629A6080BD00BF80B500AF9B
:1007E00000F002F880BD00BF80B483B000AF4FF0CE
:1007F00000037B604FF000033B604FF48053C4F272
:1008000002034FF48052C4F20202126842F48032B2
:100810001A604FF48053C4F202031B6803F40033E0
:100820003B607B6803F101037B603B68002B03D1D5
:100830007B68B3F5A06FECD14FF48053C4F2020390
:100840001B6803F40033002B03D04FF001033B601F
:1008500002E04FF000033B603B68012B40F0C78093
:100860004FF40053C4F202034FF40052C4F20202E8
:10087000126842F010021A604FF40053C4F20203EF
:100880004FF40052C4F20202126822F003021A600E
:100890004FF40053C4F202034FF40052C4F20202B8
:1008A000126842F002021A604FF48053C4F202034D
:1008B0004FF48052C4F2020252685A604FF48053DF
:1008C000C4F202034FF48052C4F2020252685A602A
:1008D0004FF48053C4F202034FF48052C4F2020278
:1008E000526842F480625A604FF48052C4F20202AD
:1008F0004FF48053C4F20203D96A4FF47043CFF629
:10090000FE730B40D3624FF48053C4F202034FF4E2
:100910008052C4F20202D26A42F4833242F04402AC
:10092000DA624FF48053C4F202034FF48052C4F2EF
:100930000202126842F080621A6000BF4FF48053D6
:10094000C4F202031B6803F00063002BF6D04FF4DF
:100950008053C4F202034FF48052C4F20202526880
:1009600022F47C125A604FF48053C4F202034FF415
:100970008052C4F20202526842F4E8125A604FF404
:100980008053C4F202034FF48052C4F20202126890
:1009900042F080721A6000BF4FF48053C4F2020329
:1009A0001B6803F00073002BF6D04FF48053C4F2A1
:1009B00002034FF48052C4F20202526822F0030292
:1009C0005A604FF48053C4F202034FF48052C4F2D1
:1009D0000202526842F002025A6000BF4FF4805394
:1009E000C4F202035B6803F00C03082BF6D107F195
:1009F0000C07BD4680BC704780B483B000AF03468F
:100A0000FB71FA7940F20003C2F2000353F822208E
:100A1000F9794DF2C013C0F6000333F811301361B9
:100A200007F10C07BD4680BC704700BF80B483B09F
:100A300000AF0346FB71FA7940F20003C2F20003F3
:100A400053F82220F9794DF2C013C0F6000333F8B1
:100A50001130536107F10C07BD4680BC704700BFE1
:100A600080B584B000AF03463960FB71FA794DF26E
:100A70001023C0F6000353F8223043F00103184658
:100A80004FF0010101F09CFBFB79002B11D14FF0DD
:100A900008004FF0010100F02FFFFA794DF20C230E
:100AA000C0F6000353F8223018464FF0010101F060
:100AB000B1FBFA794DF21423C0F6000333F812307B
:100AC000BB814FF01803FB734FF00303BB73FA793C
:100AD00040F22003C2F2000353F8222007F10C0376
:100AE0001046194600F030FEFA794DF21823C0F690
:100AF000000333F81230BB814FF00403FB73FA7923
:100B000040F22003C2F2000353F8222007F10C0345
:100B10001046194600F018FEFA7940F21C03C2F2A2
:100B2000000353F822301846396802F05DFFFA7965
:100B300040F21C03C2F2000353F8223018464FF073
:100B4000010103F027F807F11007BD4680BD00BF83
:100B500080B483B000AF78607B684FEA83437B60EA
:100B600000BF7B68002B0CBF00230123DBB27A6837
:100B700002F1FF327A60002BF3D107F10C07BD467A
:100B800080BC704780B483B000AF0346FB714FF464
:100B90007053C4F20003FA7992B29A8100BF4FF405
:100BA0007053C4F200031B899BB203F00103002BB6
:100BB000F5D04FF47053C4F200039B899BB2DBB2B3
:100BC000184607F10C07BD4680BC704780B582B05F
:100BD00000AF0346FB714FF44063C4F201034FF0D2
:100BE00004025A614FF07000FFF7CCFF4FF0000095
:100BF000FFF7C8FFFB791846FFF7C4FF4FF44063C7
:100C0000C4F201034FF004021A6107F10807BD4660
:100C100080BD00BF80B582B000AF0346FB804FF4BB
:100C20004063C4F201034FF004025A614FF07200B6
:100C3000FFF7A8FFFB884FEA13239BB2DBB21846ED
:100C4000FFF7A0FFFB88DBB21846FFF79BFF4FF4CE
:100C50004063C4F201034FF004021A6107F1080770
:100C6000BD4680BD80B500AF4FF44063C4F20103C0
:100C70004FF004025A614FF07200FFF783FF80BD0E
:100C800080B400AF4FF44063C4F201034FF004029C
:100C90001A61BD4680BC704780B582B000AF034684
:100CA000FB80FB884FEA13239BB2DBB21846FFF7A9
:100CB00069FFFB88DBB21846FFF764FF07F10807FE
:100CC000BD4680BD80B582B000AF4FF00003FB8011
:100CD0004FF44063C4F201034FF004025A614FF035
:100CE0007300FFF74FFF4FF00000FFF74BFF4FF08F
:100CF0000000FFF747FF0346FB80FB884FEA032312
:100D0000FB804FF00000FFF73DFF03461A46FB88CB
:100D10001343FB804FF44063C4F201034FF004021D
:100D20001A61FB88184607F10807BD4680BD00BF61
:100D300080B582B000AF02460B46FA71BB80FB79EA
:100D40001846FFF743FFBB881846FFF763FF07F11C
:100D50000807BD4680BD00BF80B582B000AF034626
:100D6000FB71FB791846FFF731FFFFF7ABFF034636
:100D7000184607F10807BD4680BD00BF80B500AF2B
:100D80004FF48053C4F202034FF48052C4F20202C3
:100D9000926942F019029A614FF48053C4F202033F
:100DA0004FF48052C4F20202D26942F40042DA6186
:100DB0004FF00003C4F201034FF00002C4F201023D
:100DC000526842F080525A604FF44063C4F201030B
:100DD0004FF44062C4F20102526822F470625A6019
:100DE0004FF44063C4F201034FF44062C4F20102C5
:100DF000526842F440725A604FF44063C4F20103F7
:100E00004FF44062C4F20102126822F4706222F0D0
:100E10000F021A604FF44063C4F201034FF44062C2
:100E2000C4F20102126842F4407242F003021A60F6
:100E30004FF44063C4F201034FF44062C4F2010274
:100E4000526942F004025A614FF44063C4F2010354
:100E500040F205421A6106E04FF44063C4F2010318
:100E600040F205421A614FF44063C4F20103DB68AB
:100E700003F00403002BEFD04FF48053C4F20103BE
:100E80004FF48052C4F20102526822F47F2222F40D
:100E900070625A604FF48053C4F201034FF48052E1
:100EA000C4F20102526842F4382242F430625A60BD
:100EB0004FF47053C4F2000340F247321A804FF4EB
:100EC0007053C4F200034FF000029A804FF0050007
:100ED000FFF73EFE4FF00000FFF73EFF03461A46C5
:100EE00041F6FE53C2F200031A804FF0E50047F6C8
:100EF000F401FFF71DFF4FF001004FF48071FFF781
:100F000017FF4FF002004FF4E061FFF711FF4FF0C1
:100F100004004FF00001FFF70BFF4FF0080040F214
:100F20000721FFF705FF4FF009004FF00001FFF721
:100F3000FFFE4FF00A004FF00001FFF7F9FE4FF0FF
:100F40000C004FF00001FFF7F3FE4FF00D004FF0E3
:100F50000001FFF7EDFE4FF00F004FF00001FFF72B
:100F6000E7FE4FF010004FF00001FFF7E1FE4FF0F9
:100F700011004FF00001FFF7DBFE4FF012004FF0C1
:100F80000001FFF7D5FE4FF013004FF00001FFF70F
:100F9000CFFE4FF01400FFF7DBFD4FF0100041F2E1
:100FA000B021FFF7C5FE4FF011004FF00701FFF72A
:100FB000BFFE4FF00500FFF7CBFD4FF0120040F2EF
:100FC000BD11FFF7B5FE4FF00500FFF7C1FD4FF073
:100FD00013004FF4A051FFF7ABFE4FF029004FF084
:100FE0000E01FFF7A5FE4FF00500FFF7B1FD4FF032
:100FF00020004FF00001FFF79BFE4FF021004FF063
:101000000001FFF795FE41F6FE53C2F200031A8875
:1010100045F208439A425FD14FF0300040F60D315F
:10102000FFF786FE4FF0310041F62311FFF780FEF7
:101030004FF0320041F62641FFF77AFE4FF03300C1
:1010400042F21C61FFF774FE4FF0340042F2194186
:10105000FFF76EFE4FF0350040F60B51FFF768FECC
:101060004FF0360041F20601FFF762FE4FF0370005
:101070004FF4C261FFF75CFE4FF0380040F206719A
:10108000FFF756FE4FF039004FF44171FFF750FE65
:101090004FF03A0040F60561FFF74AFE4FF03B0083
:1010A00040F60161FFF744FE4FF03C004FF48771BA
:1010B000FFF73EFE4FF03D0040F20E51FFF738FEC5
:1010C0004FF03E0040F20341FFF732FE4FF03F0089
:1010D00040F20761FFF72CFE41F6FE53C2F2000317
:1010E0001A884CF690139A423BD14FF030004FF0E3
:1010F0000601FFF71DFE4FF0310040F20111FFF72E
:1011000017FE4FF032004FF00301FFF711FE4FF0D2
:1011100035004FF48371FFF70BFE4FF0360040F6B9
:101120000231FFF705FE4FF0370040F20231FFF7C2
:10113000FFFD4FF0380040F20771FFF7F9FD4FF067
:1011400039004FF00701FFF7F3FD4FF03C004FF47B
:10115000C061FFF7EDFD4FF03D0040F20B21FFF7BE
:10116000E7FD4FF050004FF00001FFF7E1FD4FF0B9
:1011700051004FF0EF01FFF7DBFD4FF052004FF051
:101180000001FFF7D5FD4FF0530040F23F11FFF78C
:10119000CFFD4FF060004FF42741FFF7C9FD41F646
:1011A000FE53C2F200031A8845F208439A4205D161
:1011B0004FF060004FF42741FFF7BAFD41F6FE53B0
:1011C000C2F200031A884CF690139A4205D14FF0F0
:1011D00060004FF41C51FFF7ABFD4FF061004FF082
:1011E0000101FFF7A5FD4FF06A004FF00001FFF786
:1011F0009FFD4FF080004FF00001FFF799FD4FF089
:1012000081004FF00001FFF793FD4FF082004FF097
:101210000001FFF78DFD4FF083004FF00001FFF755
:1012200087FD4FF084004FF00001FFF781FD4FF084
:1012300085004FF00001FFF77BFD4FF090004FF06D
:101240001001FFF775FD4FF092004FF00001FFF71E
:101250006FFD4FF093004FF00301FFF769FD4FF072
:1012600095004FF48871FFF763FD4FF097004FF042
:101270000001FFF75DFD4FF098004FF00001FFF710
:1012800057FD4FF0030041F23801FFF751FD4FF0D9
:10129000070040F23711FFF74BFD80BD80B500AF6E
:1012A0004FF050004FF00001FFF742FD4FF05100AA
:1012B0004FF0EF01FFF73CFD4FF052004FF00001FF
:1012C000FFF736FD4FF0530040F23F11FFF730FDBE
:1012D00080BD00BF80B483B000AF0346FB8041F601
:1012E000FC53C2F20003FA881A8007F10C07BD46CE
:1012F00080BC704780B483B000AF0346FB8041F2EE
:101300002453C2F20003FA881A8007F10C07BD4685
:1013100080BC704780B584B000AF0346FB80FFF708
:10132000BDFF4FF020004FF00001FFF701FD4FF02F
:1013300021004FF00001FFF7FBFC4FF02200FFF708
:1013400045FCFFF78FFC4FF00003FB6007E0FB88D4
:101350001846FFF7A1FCFB6803F10103FB60FA6884
:1013600042F6FF33C0F201039A42F0D9FFF788FC3E
:1013700007F11007BD4680BD80B588B000AFF860AA
:10138000B9607A604FF000037B61FB68C3F5987326
:10139000FB60BB689BB24FF050001946FFF7C8FCDA
:1013A000BB689BB203F117039BB24FF05100194683
:1013B000FFF7BEFCFB689BB24FF052001946FFF7E7
:1013C000B7FCFB689BB203F10F039BB24FF05300D5
:1013D0001946FFF7ADFCBB689BB24FF020001946E1
:1013E000FFF7A6FCFB689BB24FF021001946FFF700
:1013F0009FFC4FF02200FFF7E9FBFFF733FC4FF0B3
:101400000003BB6133E04FF00F03FB6124E07B6915
:101410004FEA43037A68D3181B881A46FB6942FADD
:1014200003F303F00103002B09D141F22453C2F26C
:1014300000031B889BB21846FFF72EFC08E041F61C
:10144000FC53C2F200031B889BB21846FFF724FC32
:10145000FB6903F1FF33FB61FB69002BD7DA7B6883
:1014600003F102037B60BB6903F10103BB61BB694C
:10147000172BC8DDFFF704FC07F12007BD4680BD30
:1014800080B584B000AFF860B9601346FB71FB799A
:10149000A3F12003FB71BB684FEA0310FA681346FF
:1014A0004FEA43039B184FEAC3031946FA791346E0
:1014B0004FEA43039B184FEAC3034FEA430240F24B
:1014C0002403C2F20003D3181A46FFF755FF07F1B1
:1014D0001007BD4680BD00BF80B584B000AFF86086
:1014E000B9607A60FFF7DAFE0FE0BA68BB6803F113
:1014F0000103BB607B681B78796801F101017960A9
:10150000F86811461A46FFF7BBFF7B681B78002B73
:10151000EBD107F11007BD4680BD00BF80B588B094
:1015200000AFF860B9607A603B60BB6A7B61FB68C2
:10153000C3F100027B68D31A03F5A073FB60BB689C
:101540009BB24FF050001946FFF7F2FBBB689AB20E
:101550003B689BB2D3189BB203F1FF339BB24FF0B1
:1015600051001946FFF7E4FBFB689BB24FF05200B5
:101570001946FFF7DDFBFB689AB27B689BB2D31874
:101580009BB203F1FF339BB24FF053001946FFF7B4
:10159000CFFBBB689BB24FF020001946FFF7C8FB9A
:1015A000FB689BB24FF021001946FFF7C1FB4FF0DB
:1015B0002200FFF70BFBFFF755FB3B687A6802FB45
:1015C00003F303F1FF334FEA43037A69D3187B61D6
:1015D0004FF00003BB6118E04FF00003FB610CE02B
:1015E0007B691B887A69A2F102027A611846FFF7CB
:1015F00053FBFB6903F10103FB61FA697B689A42C3
:10160000EED3BB6903F10103BB61BA693B689A423F
:10161000E2D3FFF735FB07F12007BD4680BD00BFD1
:1016200080B500AF03F03CF903F0C6F94FF082003B
:1016300003F0F6F94FF0400003F00AFA4FF0030010
:1016400003F006FA03F0D2F980BD00BF80B582B086
:1016500000AF0B463A600246FA71BB7103F0ACF979
:101660004FF0820003F0DCF9FB79184603F0F0F943
:1016700008E03B68DBB2184603F0EAF93B684FEA42
:1016800013233B60BB79002B0CBF00230123DBB28B
:10169000BA7902F1FF32BA71002BEAD103F0A6F950
:1016A00007F10807BD4680BD80B584B000AF024693
:1016B0000B46FA71BB714FF00003FB6003F07CF93D
:1016C0004FF0820003F0ACF9FB79184603F0C0F943
:1016D00003F072F94FF0830003F0A2F910E0FB6809
:1016E0004FEA0323FB60BB79002B0CBF00230123CF
:1016F000DBB2184603F0C4F90346FA681343FB60F3
:10170000BB79002B0CBF00230123DBB2BA7902F1B5
:10171000FF32BA71002BE2D103F068F9FB6818467A
:1017200007F11007BD4680BD80B483B000AF03460B
:10173000FB714FF02003C4F20E23FA791A6007F10F
:101740000C07BD4680BC704780B489B000AF78609C
:1017500039604FF00003FB614FF000033B614FF035
:101760000003BB614FF00003FB604FF000037B619F
:101770004FF00003BB603B68DB7803F00F03FB61B5
:101780003B68DB7803F01003002B04D03B689B78A8
:10179000FA691343FB613B681B88DBB2002B4ED018
:1017A0007B681B687B614FF00003BB6141E0BB6954
:1017B0004FF0010202FA03F3FB603B681B881A46F4
:1017C000FB6813403B613A69FB689A422DD1BB69C3
:1017D0004FEA8303FB60FB684FF00F0202FA03F34A
:1017E000BB60BB686FEA03037A6913407B61FB68E7
:1017F000FA6902FA03F37A6913437B613B68DB7889
:10180000282B07D1BB694FF0010202FA03F27B6873
:101810005A610AE03B68DB78482B06D1BB694FF080
:10182000010202FA03F27B681A61BB6903F101034A
:10183000BB61BB69072BBAD97B687A691A603B68C0
:101840001B88FF2B53D97B685B687B614FF00003DB
:10185000BB6146E0BB6903F108034FF0010202FAE5
:1018600003F3FB603B681B881A46FB6813403B612F
:101870003A69FB689A4230D1BB694FEA8303FB6047
:10188000FB684FF00F0202FA03F3BB60BB686FEA1C
:1018900003037A6913407B61FB68FA6902FA03F378
:1018A0007A6913437B613B68DB78282B08D1BB69DD
:1018B00003F108034FF0010202FA03F27B685A6158
:1018C0003B68DB78482B08D1BB6903F108034FF074
:1018D000010202FA03F27B681A61BB6903F101039A
:1018E000BB61BB69072BB5D97B687A695A6007F180
:1018F0002407BD4680BC704780B487B000AF7860D5
:101900000B46FB704FF000033B614FF00003FB60A0
:101910004FF000037B614FF00003BB607B68002B3E
:1019200006DA4FF00003C4F20103DB697B6105E0D6
:101930004FF00003C4F201035B687B617B6803F432
:1019400070234FEA1343BB607B684FEA03434FEABF
:1019500013433B617B6803F44013B3F5401F10D180
:101960007B6923F070637B614FF00003C4F20103D5
:101970004FF00002C4F20102526822F070625A6015
:1019800026E07B6803F48013002B10D0BB684FF077
:10199000030202FA03F3FB60FB686FEA03037A6950
:1019A00013407B617B6943F070637B6110E07B686F
:1019B0004FEA53534FEA03133A6902FA03F36FEA0B
:1019C00003037A6913407B617B6943F070637B6139
:1019D000FB78002B0AD07B684FEA53534FEA03137E
:1019E0003A6902FA03F37A6913437B617B68002B3F
:1019F00006DA4FF00003C4F201037A69DA6105E008
:101A00004FF00003C4F201037A695A6007F11C0722
:101A1000BD4680BC704700BF90B484B000AF0246A2
:101A20000B46FA71BB714FF00003FB60BB7903F00A
:101A300003034FEA83034FF00F0202FA03F3FB6044
:101A40004FF00003C4F20103BA794FEA9202D2B216
:101A500010464FF00002C4F20102B9794FEA910139
:101A6000C9B201F1020152F82110FA686FEA0202CC
:101A7000114000F1020243F822104FF00003C4F2BB
:101A80000103BA794FEA9202D2B210464FF0000237
:101A9000C4F20102B9794FEA9101C9B201F1020120
:101AA00052F82110FC79BA7902F003024FEA82025F
:101AB00004FA02F2114300F1020243F8221007F186
:101AC0001007BD4690BC704790B587B000AF4FF08F
:101AD00004037B614FF400433B804FF40063BB8001
:101AE0004FF00003FB804FF000033B814FF00003F9
:101AF0007B814FF03803BB814FF00003FB814FF037
:101B000007033B824FF482737B803B464FF4605067
:101B1000C4F20000194602F0FFFC00BF4FF4605011
:101B2000C4F200004FF0010102F088FD0346002BD3
:101B3000F4D04FF46050C4F2000002F051FD0346AF
:101B40004FEAD3039BB21A4641F22853C2F2000374
:101B50001A604FF000037B803B464FF46050C4F2A4
:101B60000000194602F0D8FC41F22853C2F20003EB
:101B70001A6813464FEA43039B184FEA43037B61FD
:101B80007A6948F21F53C5F2EB1383FB02134FEA45
:101B900063114FEAE273CC1A7A6948F21F53C5F217
:101BA000EB1383FB02134FEA63114FEAE273CB1A84
:101BB0004FF0640101FB03F3D31A46F26762C6F2E9
:101BC000666282FB03124FEAA2024FEAE373D31A62
:101BD00046F29430C2F200004DF21C21C0F6000122
:101BE000224603F01BF94DF23420C0F6000046F205
:101BF0009431C2F2000103F0BFF807F11C07BD46A3
:101C000090BD00BFB0B584B000AF4FF00003FB60E3
:101C100041F60463C2F200031C78234603F0070573
:101C20004FF41050C4F2010001F096FB03461A462F
:101C300041F60863C2F2000323F8152004F1010302
:101C4000DAB241F60463C2F200031A704FF00003E7
:101C5000FB720DE0FA7A41F60863C2F2000333F832
:101C60001230FA68D318FB60FB7A03F10103FB72B0
:101C7000FB7A072BEED9FB684FEAD303FB604FF0EA
:101C800000037B604FF000033B60FB687B607B6878
:101C90004FF0640202FB03F33B603B684FEA1333EF
:101CA0003B6046F27430C2F200004DF24821C0F6AB
:101CB00000013A6803F0B2F84FF41050C4F201008A
:101CC00001F04AFB03464DF25C20C0F600001946C5
:101CD00003F052F807F11007BD46B0BD80B582B0E1
:101CE00000AF7860FFF74AF84FF01F00FFF712FBD4
:101CF00001F040FBFEE700BF80B584B000AF786024
:101D0000FEF7DEFBFEF77EFB00F05AFE0346FB60AB
:101D1000FFF7DAFE07F10C0318464FF47A7100F072
:101D2000D5FCFFF76FFF4FF0640000F021FDEFE7F7
:101D300080B584B004AFFEF719FB4FF005030093A4
:101D400046F27033C2F2000301934FF00003029396
:101D50004FF00003039341F6DD40C0F600004DF262
:101D60007021C0F600014FF0FA024FF0000300F0BE
:101D7000E9FB4FF00503009346F29033C2F20003F3
:101D800001934FF0000302934FF00003039341F6D9
:101D9000F940C0F600004DF27421C0F600014FF486
:101DA00096724FF0000300F0CDFB00F00FFDFEE750
:101DB00080B485B000AF78604FF00003FB604FF453
:101DC0008053C4F202035B68FB60FB6823F0F003FE
:101DD000FB60FA687B681343FB604FF48053C4F2E6
:101DE0000203FA685A6007F11407BD4680BC7047C9
:101DF00080B485B000AF78604FF00003FB604FF413
:101E00008053C4F202035B68FB60FB6823F4E06369
:101E1000FB60FA687B681343FB604FF48053C4F2A5
:101E20000203FA685A6007F11407BD4680BC704788
:101E300080B485B000AF78604FF00003FB604FF4D2
:101E40008053C4F202035B68FB60FB6823F46053B9
:101E5000FB607B684FEAC303FA681343FB604FF4EF
:101E60008053C4F20203FA685A6007F11407BD46B2
:101E700080BC704780B485B000AF78604FF000033D
:101E8000FB604FF48053C4F202035B68FB60FB68A5
:101E900023F44043FB60FA687B681343FB604FF414
:101EA0008053C4F20203FA685A6007F11407BD4672
:101EB00080BC704780B483B000AF0346FB714FF421
:101EC0008153C4F202034FF000021A704FF48153A1
:101ED000C4F202034FF000021A70FB79012B02D00A
:101EE000042B08D00FE04FF48153C4F202034FF0EB
:101EF00001021A7008E04FF48153C4F202034FF05C
:101F000005021A7000E000BF07F10C07BD4680BC57
:101F1000704700BF80B483B000AF78604FF4805347
:101F2000C4F202034FF48052C4F20202116A7A68CA
:101F30000A431A6207F10C07BD4680BC704700BF18
:101F400080B483B000AF0346FB7140F23C43C4F25F
:101F50004223FA791A6007F10C07BD4680BC70472E
:101F600080B48BB000AF78604FF000033B624FF05D
:101F700000037B624FF00003FB614FF00003BB6185
:101F80004FF000037B614FF000033B614FF0000313
:101F9000FB604FF00003BB604FF48053C4F20203B8
:101FA0005B6803F00C033B623B6A042B0BD0082BED
:101FB00010D0002B40F087807A684FF49053C0F225
:101FC0007A03136086E07A6847F64003C0F27D1317
:101FD00013607FE04FF48053C4F202035B6803F4A4
:101FE00070137B624FF48053C4F202035B6803F406
:101FF0008033FB617B6A4FEA93437B627B6A0D2BE4
:1020000004D07B6A03F102037B6202E04FF0060317
:102010007B62FB69002B09D17A6A4FF41063C0F22E
:102020003D0303FB02F27B681A6053E04FF48053D8
:10203000C4F20203DB6A03F480337B614FF4805304
:10204000C4F20203DB6A03F00F0303F101033B61F7
:102050007B69002B0CD147F64003C0F27D133A692F
:10206000B3FBF2F37A6A02FB03F27B681A6031E099
:102070004FF48053C4F20203DB6A03F0F0034FEA2B
:10208000131303F10103FB604FF48053C4F2020306
:10209000DB6A03F470634FEA132303F10203BB60AE
:1020A00047F64003C0F27D13FA68B3FBF2F3BA6857
:1020B00002FB03F23B69B2FBF3F37A6A02FB03F221
:1020C0007B681A6006E07A684FF49053C0F27A0396
:1020D000136000BF4FF48053C4F202035B6803F047
:1020E000F0033B623B6A4FEA13133B6241F22C530D
:1020F000C2F200033A6A9B181B78DBB2BB617B68B3
:102100001A68BB6922FA03F27B685A604FF4805365
:10211000C4F202035B6803F4E0633B623B6A4FEA8C
:1021200013233B6241F22C53C2F200033A6A9B181C
:102130001B78DBB2BB617B685A68BB6922FA03F289
:102140007B689A604FF48053C4F202035B6803F427
:1021500060533B623B6A4FEAD3233B6241F22C530C
:10216000C2F200033A6A9B181B78DBB2BB617B6842
:102170005A68BB6922FA03F27B68DA604FF4805335
:10218000C4F202035B6803F440433B623B6A4FEADC
:1021900093333B6241F23C53C2F200033A6A9B180C
:1021A0001B78DBB2BB617B68DA68BB69B2FBF3F218
:1021B0007B681A6107F12C07BD4680BC704700BFE1
:1021C00080B483B000AF78600B46FB70FB78002BC7
:1021D0000CD04FF48053C4F202034FF48052C4F287
:1021E000020291697A680A439A610DE04FF48053C4
:1021F000C4F202034FF48052C4F2020291697A6879
:102200006FEA02020A409A6107F10C07BD4680BCE2
:10221000704700BF80B483B000AF78600B46FB709E
:10222000FB78002B0CD04FF48053C4F202034FF420
:102230008052C4F20202D1697A680A43DA610DE081
:102240004FF48053C4F202034FF48052C4F20202EE
:10225000D1697A686FEA02020A40DA6107F10C0775
:10226000BD4680BC704700BF80B487B000AF034656
:10227000FB714FF00003FB604FF000037B614FF0F8
:102280000003FB74FB794FEA5313DBB2FB60FB687E
:10229000012B06D14FF48053C4F202031B687B610B
:1022A0000FE0FB68022B06D14FF48053C4F2020307
:1022B0001B6A7B6105E04FF48053C4F202035B6A42
:1022C0007B61FB7903F01F03FB60FB687A6922FAEC
:1022D00003F303F00103002B03D04FF00103FB7461
:1022E00002E04FF00003FB74FB7C184607F11C076B
:1022F000BD4680BC704700BF80B400AF4FF4805330
:10230000C4F202034FF48052C4F20202526A42F055
:1023100080725A62BD4680BC704700BF80B582B0F3
:1023200000AF44F2C053C0F601037B6040F20003EB
:10233000C2F200033B600BE07B681A683B681A60DE
:102340003B6803F104033B607B6803F104037B609B
:102350003A6841F6FC53C2F200039A42ECD30948B2
:1023600009494FF000028842B8BF40F8042BFFF63D
:10237000FAAFFEF7CBF9FFF7DBFC07F10807BD4624
:1023800080BD0000FC1D0020BC63002080B400AFB5
:10239000FEE700BF80B485B000AF78604FF0000367
:1023A000FB604FF48063C4F20103FB607B689B79A0
:1023B000002B78D04FF48063C4F201034FF48062A5
:1023C000C4F2010211687A6812686FEA02020A40D8
:1023D0001A604FF48063C4F201034FF48062C4F2C8
:1023E000010251687A6812686FEA02020A405A6074
:1023F0007B681B79FA68D318FB60FB68FA68116880
:102400007A6812680A431A604FF48063C4F20103C9
:102410004FF48062C4F2010291687A6812686FEA30
:1024200002020A409A604FF48063C4F201034FF441
:102430008062C4F20102D1687A6812686FEA02020F
:102440000A40DA607B685B79102B1AD14FF4806305
:10245000C4F201034FF48062C4F2010291687A6809
:1024600012680A439A604FF48063C4F201034FF488
:102470008062C4F20102D1687A6812680A43DA60A5
:102480001FE04FF48063C4F20103FB607B685B795B
:10249000FA68D318FB60FB68FA6811687A681268FA
:1024A0000A431A600DE07B681B79FA68D318FB6059
:1024B000FB68FA6811687A6812686FEA02020A40DB
:1024C0001A6007F11407BD4680BC704780B485B020
:1024D00000AF78604FF00003FB734FF00003BB6068
:1024E0004FF48063C4F201031A687B681340BB6039
:1024F0004FF48063C4F201035A697B681340002BD8
:1025000006D0BB68002B03D04FF00103FB7302E041
:102510004FF00003FB73FB7B184607F11407BD4621
:1025200080BC704780B483B000AF78604FF48063A4
:10253000C4F201037A685A6107F10C07BD4680BCFA
:10254000704700BF80B58AB002AFF860B9603B60E9
:102550001346FB80FB881846396B00F00BFDB86111
:10256000BB69002B00F09480BB691A6BFB8803F1F8
:10257000FF334FEA8303D3187B617B6923F00703A2
:102580007B61FB880093B869B968BA6A7B6B00F01D
:10259000BDFB7869F9683A6801F022FE0246BB6922
:1025A0001A60FB6A002B02D0FB6ABA691A6001F05C
:1025B000A3FE41F6F063C2F200031B6803F10102BF
:1025C00041F6F063C2F200031A6041F61863C2F2EA
:1025D00000031B68002B0FD141F61863C2F2000301
:1025E000BA691A6041F6F063C2F200031B68012B5E
:1025F00018D100F0D9FB15E041F6FC63C2F20003EC
:102600001B68002B0ED141F61863C2F200031B6851
:10261000DA6ABB6A9A4205D841F61863C2F200032F
:10262000BA691A6041F61073C2F200031B6803F125
:10263000010241F61073C2F200031A60BB69DA6A44
:1026400041F6F863C2F200031B689A4206D9BB69DF
:10265000DA6A41F6F863C2F200031A60BB69DA6A0B
:1026600013464FEA83039B184FEA830341F61C622B
:10267000C2F200029A18BB6903F10403104619461E
:1026800001F00AFB4FF00103FB6101F04BFE02E099
:102690004FF0FF33FB61FB69012B11D141F6FC6365
:1026A000C2F200031B68002B0AD041F61863C2F285
:1026B00000031B68DA6ABB6A9A4201D201F00CFE81
:1026C000FB69184607F12007BD4680BD80B586B07E
:1026D00000AF786039604FF000037B6100F0AEF826
:1026E00041F6F463C2F200031B683B617B681A6821
:1026F0003B68D318FB607B681A683B699A420CD927
:102700007B681A68FB689A4213D9FA683B699A4257
:102710000FD94FF001037B610BE07B681A68FB68FF
:102720009A4203D8FA683B699A4202D94FF00103F2
:102730007B617B68FA681A607B69002B0CD041F6DC
:102740001863C2F200031B6803F10403184601F08A
:1027500001FBF86800F0C8FB00F082F8B860BB68C5
:10276000002B01D101F0B8FD07F11807BD4680BD6F
:1027700080B584B000AF78604FF00003FB607B68E9
:10278000002B19D000F05AF841F6F463C2F20003AE
:102790001A687B68D318BB6041F61863C2F2000365
:1027A0001B6803F10403184601F0D4FAB86800F07E
:1027B0009BFB00F055F8F860FB68002B01D101F09D
:1027C0008BFD07F11007BD4680BD00BF80B586B008
:1027D00004AF4FF0000300934FF0000301934FF05C
:1027E000000302934FF00003039342F6E940C0F662
:1027F00000004EF63411C0F600014FF096024FF083
:102800000003FFF79FFE78607B68012B11D101F078
:10281000A3FD41F6FC63C2F200034FF001021A600F
:1028200041F6F463C2F200034FF000021A6001F0B7
:1028300029FD07F10807BD4680BD00BF80B400AF89
:1028400041F60073C2F200031B6803F1010241F676
:102850000073C2F200031A60BD4680BC704700BF1F
:1028600080B582B000AF4FF000037B6001F044FD03
:1028700041F60073C2F200031B6803F1FF3241F618
:102880000073C2F200031A6041F60073C2F2000343
:102890001B68002B40F08B8041F6F063C2F200030E
:1028A0001B68002B00F0838047E041F6B063C2F262
:1028B0000003DB68DB683B603B6803F118031846E4
:1028C00001F048FA3B6803F10403184601F042FAAC
:1028D0003B68DA6A41F6F863C2F200031B689A4269
:1028E00006D93B68DA6A41F6F863C2F200031A605F
:1028F0003B68DA6A13464FEA83039B184FEA830367
:1029000041F61C62C2F200029A183B6803F104030C
:102910001046194601F0C0F93B68DA6A41F61863BF
:10292000C2F200031B68DB6A9A4206D341F60873C1
:10293000C2F200034FF001021A6041F6B063C2F226
:1029400000031B68002BB0D141F60473C2F20003F0
:102950001B68002B1FD017E000F046F80346002B41
:1029600006D041F60873C2F200034FF001021A606C
:1029700041F60473C2F200031B6803F1FF3241F613
:102980000473C2F200031A6041F60473C2F200033A
:102990001B68002BE0D141F60873C2F200031B68EC
:1029A000012B04D14FF001037B6001F095FC01F095
:1029B000B9FC7B68184607F10807BD4680BD00BF1B
:1029C00080B582B000AF01F097FC41F6F463C2F22B
:1029D00000031B687B6001F0A5FC7B68184607F1CB
:1029E0000807BD4680BD00BF80B586B000AF4FF080
:1029F00000037B6141F60073C2F200031B68002BE9
:102A000040F0EE8041F6F463C2F200031B6803F16C
:102A1000010241F6F463C2F200031A6041F6F46366
:102A2000C2F200031B683B613B69002B47D141F6B2
:102A3000A863C2F200031B68FB6041F6AC63C2F2FC
:102A400000031A6841F6A863C2F200031A6041F657
:102A5000AC63C2F20003FA681A6041F60C73C2F26A
:102A600000031B6803F1010241F60C73C2F200037C
:102A70001A6041F6A863C2F200031B681B68002BB2
:102A800002D14FF0010301E04FF00003002B07D00B
:102A900041F24053C2F200034FF0FF321A600EE0E1
:102AA00041F6A863C2F200031B68DB68DB68BB6009
:102AB000BB685A6841F24053C2F200031A6041F207
:102AC0004053C2F200031B683A699A4270D300E097
:102AD00000BF41F6A863C2F200031B681B68002B0D
:102AE00002D14FF0010301E04FF00003002B07D0AB
:102AF00041F24053C2F200034FF0FF321A6057E038
:102B000041F6A863C2F200031B68DB68DB68BB60A8
:102B1000BB685B687B603A697B689A4206D241F287
:102B20004053C2F200037A681A6041E0BB6803F1C7
:102B30000403184601F00EF9BB689B6A002B05D010
:102B4000BB6803F11803184601F004F9BB68DA6AA0
:102B500041F6F863C2F200031B689A4206D9BB68CB
:102B6000DA6A41F6F863C2F200031A60BB68DA6AF7
:102B700013464FEA83039B184FEA830341F61C6216
:102B8000C2F200029A18BB6803F10403104619460A
:102B900001F082F8BB68DA6A41F61863C2F20003FA
:102BA0001B68DB6A9A4293D34FF001037B618FE786
:102BB00041F61863C2F200031B68D96A41F61C6231
:102BC000C2F200020B464FEA83035B184FEA83030D
:102BD000D3181B68012B0FD94FF001037B610BE069
:102BE00041F60473C2F200031B6803F1010241F6CF
:102BF0000473C2F200031A6041F60873C2F20003C4
:102C00001B68002B02D04FF001037B617B691846E3
:102C100007F11807BD4680BD80B483B000AF41F610
:102C20000073C2F200031B68002B07D041F6087343
:102C3000C2F200034FF001021A6050E041F608733F
:102C4000C2F200034FF000021A600BE041F6F86395
:102C5000C2F200031B6803F1FF3241F6F863C2F2CF
:102C600000031A6041F6F863C2F20003196841F6E6
:102C70001C62C2F200020B464FEA83035B184FEA64
:102C80008303D3181B68002BE0D041F6F863C2F22F
:102C900000031A6813464FEA83039B184FEA830325
:102CA00041F61C62C2F200029B187B607B685B6885
:102CB0005A687B685A607B685A687B6803F108032E
:102CC0009A4204D17B685B685A687B685A607B686B
:102CD0005B68DA6841F61863C2F200031A6007F114
:102CE0000C07BD4680BC704780B582B000AF7860ED
:102CF00000E000BF00F0AAF841F61C63C2F2000336
:102D00001B68012BF5D901F0E7FAF2E780B586B030
:102D100000AFF860B9607A603B604FF000037B6100
:102D200013E0BA687B69D3181A78F9687B69CB1805
:102D300003F130031A71BA687B69D3181B78002B32
:102D400007D07B6903F101037B617B690F2BE8D915
:102D500000E000BFFB684FF0000283F843207B686F
:102D6000042B02D94FF004037B60FB687A68DA62B7
:102D7000FB6803F10403184600F080FFFB6803F1D1
:102D80001803184600F07AFFFB68FA681A617B683E
:102D9000C3F10502FB689A61FB68FA685A6207F1A1
:102DA0001807BD4680BD00BF80B582B000AF4FF0B0
:102DB00000037B6012E07A6813464FEA83039B1896
:102DC0004FEA830341F61C62C2F200029B181846C8
:102DD00000F034FF7B6803F101037B607B68042B08
:102DE000E9D941F68060C2F2000000F027FF41F609
:102DF0009460C2F2000000F021FF41F6B060C2F220
:102E0000000000F01BFF41F6C460C2F2000000F0B9
:102E100015FF41F6DC60C2F2000000F00FFF41F642
:102E2000A863C2F2000341F68062C2F200021A6097
:102E300041F6AC63C2F2000341F69462C2F20002B2
:102E40001A6007F10807BD4680BD00BF80B582B09B
:102E500000AF3DE0FFF7F2FC41F6C463C2F20003AD
:102E60001B68002B14BF00230123DBB27B60FFF73C
:102E7000F7FC7B68002B2BD101F03EFA41F6C463CE
:102E8000C2F20003DB68DB683B603B6803F10403CC
:102E9000184600F05FFF41F6F063C2F200031B68C2
:102EA00003F1FF3241F6F063C2F200031A6041F60B
:102EB000D863C2F200031B6803F1FF3241F6D86306
:102EC000C2F200031A6001F02DFA386800F08AF8A7
:102ED00041F6D863C2F200031B68002BBAD107F198
:102EE0000807BD4680BD00BF80B582B000AF7860E6
:102EF00041F61863C2F200031B687A685A6041F613
:102F0000F463C2F200031B687A689A4210D241F659
:102F1000AC63C2F200031A6841F61863C2F2000300
:102F20001B6803F104031046194600F0D9FE1DE0AA
:102F300041F6A863C2F200031A6841F61863C2F2B0
:102F400000031B6803F104031046194600F0C8FE95
:102F500041F24053C2F200031B687A689A4205D2DC
:102F600041F24053C2F200037A681A6007F1080781
:102F7000BD4680BD80B584B000AF03463960FB809C
:102F80004FF0440001F07AFBF860FB68002B23D07F
:102F90003B68002B07D1FB884FEA8303184601F0FA
:102FA0006DFB034600E03B68FA681363FB681B6B2C
:102FB000002B06D1F86801F0C1FB4FF00003FB6065
:102FC0000AE0FB681A6BFB884FEA830310464FF058
:102FD000A5011A4601F03AFEFB68184607F11007F2
:102FE000BD4680BD80B582B000AF78607B681B6B4A
:102FF000184601F0A3FB786801F0A0FB07F1080771
:10300000BD4680BD80B485B000AF786039604FF0B8
:103010000003FB604FF00003FB727B685B68FB60A2
:10302000FB6823F4702323F48073FB603B681A6809
:103030003B681B794FEA03231343FA681343FB6091
:103040007B68FA685A607B689B68FB60FA684FF29D
:10305000FD73CFF6F1731340FB603B68DA683B68A1
:103060009B681A433B685B794FEA43031343FA6852
:103070001343FB607B68FA689A607B68DB6AFB60DD
:10308000FB6823F47003FB603B681B7C03F1FF3398
:10309000DAB2FB7A1343FB72FB7A4FEA0353FA6806
:1030A0001343FB607B68FA68DA6207F11407BD46D8
:1030B00080BC704780B483B000AF78600B46FB7073
:1030C000FB78002B06D07B689B6843F001027B688D
:1030D0009A6005E07B689B6823F001027B689A6038
:1030E00007F10C07BD4680BC704700BF80B483B0B9
:1030F00000AF78607B689B6843F008027B689A6049
:1031000007F10C07BD4680BC704700BF80B483B098
:1031100000AF78607B689B6843F004027B689A602C
:1031200007F10C07BD4680BC704700BF80B485B076
:1031300000AF78604FF00003FB737B689B6803F07F
:103140000403002B03D04FF00103FB7302E04FF0A8
:103150000003FB73FB7B184607F11407BD4680BCD8
:10316000704700BF80B483B000AF78600B46FB703F
:10317000FB78002B06D07B689B6843F4A0027B6839
:103180009A6005E07B689B6823F4A0027B689A60E4
:1031900007F10C07BD4680BC704700BF80B485B006
:1031A00000AF7860F970BA707B704FF00003FB607D
:1031B0004FF00003BB60FB78092B27D97B68DB68E5
:1031C000FB60FA7813464FEA43039B18A3F11E03F2
:1031D0004FF0070202FA03F3BB60BB686FEA030318
:1031E000FA681340FB607978FA7813464FEA430394
:1031F0009B18A3F11E0301FA03F3BB60FA68BB68D6
:103200001343FB607B68FA68DA6022E07B681B6925
:10321000FB60FA7813464FEA43039B184FF007020E
:1032200002FA03F3BB60BB686FEA0303FA6813405A
:10323000FB607978FA7813464FEA43039B1801FA4A
:1032400003F3BB60FA68BB681343FB607B68FA68F2
:103250001A61BB78062B27D87B685B6BFB60BB7859
:1032600003F1FF3213464FEA83039B184FF01F020E
:1032700002FA03F3BB60BB686FEA0303FA6813400A
:10328000FB60F978BB7803F1FF3213464FEA830302
:103290009B1801FA03F3BB60FA68BB681343FB6039
:1032A0007B68FA685A6351E0BB780C2B27D87B689F
:1032B0001B6BFB60BA7813464FEA83039B18A3F19C
:1032C00023034FF01F0202FA03F3BB60BB686FEAEF
:1032D0000303FA681340FB60F978BA7813464FEAA3
:1032E00083039B18A3F1230301FA03F3BB60FA687D
:1032F000BB681343FB607B68FA681A6326E07B684F
:10330000DB6AFB60BA7813464FEA83039B18A3F18C
:1033100041034FF01F0202FA03F3BB60BB686FEA80
:103320000303FA681340FB60F978BA7813464FEA52
:1033300083039B18A3F1410301FA03F3BB60FA680E
:10334000BB681343FB607B68FA68DA6207F1140715
:10335000BD4680BC704700BF80B483B000AF7860CA
:103360007B68DB6C9BB2184607F10C07BD4680BC3E
:10337000704700BF80B586B002AF4EF63C10C0F675
:10338000000001F043FD4FF000037B604FF00003AD
:10339000FB604FF00003BB604FF41053C4F2010315
:1033A0001B6803F00203002B28D04FF41053C4F223
:1033B0000103DB6C4FEA03534FEA13534FEA032236
:1033C000FB68D318FB60FB6803F10103FB604FF45B
:1033D0001053C4F201034FF41052C4F20102926878
:1033E00042F480029A60FB68DBB2102B06D1FB68C6
:1033F0004FEA23337B604FF00003FB60BB68012B77
:1034000026D0022B00F0A180002B40F0EB824EF67C
:103410004810C0F6000001F0F9FC4DF65F70FDF7B2
:1034200079FF4DF65F70FDF765FF47F6E030FDF779
:1034300051FF4FF004004FF002014EF65012C0F65B
:103440000002FEF749F8BB6803F10103BB60C9E263
:103450004EF66410C0F6000001F0D8FC4DF65F7027
:10346000FDF758FF4DF65F70FDF744FF43F645103A
:10347000FDF730FF01F09CF94FF001004FF0000123
:1034800041F24852C2F20002FEF726F84FF0020065
:103490004FF000014EF66C12C0F60002FEF71CF869
:1034A0004FF005004FF000014EF67412C0F6000216
:1034B000FEF712F84FF006004FF000014EF68012B2
:1034C000C0F60002FEF708F841F2FC63C0F6010303
:1034D00000934FF023004FF0B4014FF040024FF043
:1034E0001E03FEF71BF842F2FC53C0F601030093E3
:1034F0004FF07D004FF0B4014FF040024FF01E033B
:10350000FEF70CF843F2FC43C0F6010300934FF0C2
:10351000D7004FF0B4014FF040024FF01E03FDF70B
:10352000FDFF4DF6F453C0F6000300934FF0C300C7
:103530004FF078014FF03C024FF01903FDF7EEFF1A
:10354000BB6803F10103BB604CE201F031F94FF0BD
:1035500001004FF0000141F24852C2F20002FDF7B3
:10356000BBFF4FF003004FF0000146F29432C2F26D
:103570000002FDF7B1FF4FF004004FF0000146F2EA
:103580007432C2F20002FDF7A7FF41F61473C2F2D3
:1035900000031B68002B7AD041F61873C2F20003B7
:1035A0001B68002B73D041F61473C2F200031A6833
:1035B00040F6AC539A4260DC41F61873C2F2000345
:1035C0001A6840F27B139A4257DD41F61873C2F233
:1035D00000031A6840F214539A424EDC41F62473F9
:1035E000C2F200031B68002B47D04EF68C13C0F6C6
:1035F000000300934FF023004FF0B4014FF040025E
:103600004FF01E03FDF78AFF42F2FC53C0F60103A0
:1036100000934FF07D004FF0B4014FF040024FF0A7
:103620001E03FDF77BFF43F2FC43C0F6010300934A
:103630004FF0D7004FF0B4014FF040024FF01E039F
:10364000FDF76CFF4DF6F453C0F6000300934FF006
:10365000C3004FF078014FF03C024FF01903FDF723
:103660005DFF4FF00000FDF7C7F94FF00100FDF7D7
:10367000DDF94FF00200FDF7D9F941F62473C2F2EB
:1036800000031A6841F62873C2F200031A6041F67B
:103690001473C2F200031B68002B00F0838041F614
:1036A0001873C2F200031B68002B7BD041F6147321
:1036B000C2F200031A6840F635339A4268DD41F6DB
:1036C0001473C2F200031A6840F6AC539A425FDCEE
:1036D00041F61873C2F200031A6840F2DB539A42B3
:1036E00056DD41F61873C2F200031B68B3F5166F7E
:1036F0004EDC41F62473C2F200031B68002B47D056
:103700004EF68C13C0F6000300934FF023004FF0E9
:10371000B4014FF040024FF01E03FDF7FFFE4FF6DD
:10372000C403C0F6000300934FF07D004FF0B401D6
:103730004FF040024FF01E03FDF7F0FE43F2FC4352
:10374000C0F6010300934FF0D7004FF0B4014FF0E3
:1037500040024FF01E03FDF7E1FE4DF6F453C0F6B4
:10376000000300934FF0C3004FF078014FF03C028C
:103770004FF01903FDF7D2FE4FF00000FDF73CF9C2
:103780004FF00100FDF738F94FF00200FDF74EF958
:1037900041F62473C2F200031A6841F62873C2F29C
:1037A00000031A6041F61473C2F200031B68002B79
:1037B00000F0838041F61873C2F200031B68002BEF
:1037C0007BD041F61473C2F200031A6840F6B73397
:1037D0009A4268DD41F61473C2F200031A6840F69B
:1037E000AC539A425FDC41F61873C2F200031A68C8
:1037F00040F6F5139A4256DD41F61873C2F2000303
:103800001B68B3F5616F4EDC41F62473C2F200030E
:103810001B68002B47D04EF68C13C0F600030093B4
:103820004FF023004FF0B4014FF040024FF01E0361
:10383000FDF774FE4FF6C403C0F6000300934FF08B
:103840007D004FF0B4014FF040024FF01E03FDF732
:1038500065FE40F2FC73C0F6010300934FF0D70001
:103860004FF0B4014FF040024FF01E03FDF756FE3B
:103870004DF6F453C0F6000300934FF0C3004FF031
:1038800078014FF03C024FF01903FDF747FE4FF06F
:103890000000FDF7B1F84FF00100FDF7ADF84FF073
:1038A0000200FDF7A9F841F62473C2F200031A687A
:1038B00041F62873C2F200031A6041F62473C2F283
:1038C00000031A6841F62873C2F200031B689A428B
:1038D00000F0878041F61473C2F200031B68002BCE
:1038E0007FD041F61873C2F200031B68002B78D01A
:1038F00041F61473C2F200031B68F92B67DD41F631
:103900001473C2F200031B68B3F5397F5FDC41F624
:103910001873C2F200031A6840F65F139A4256DD2C
:1039200041F61873C2F200031B68B3F5616F4EDCF9
:1039300041F62473C2F200031B68002B47D041F20A
:10394000FC63C0F6010300934FF023004FF0B40175
:103950004FF040024FF01E03FDF7E0FD42F2FC5332
:10396000C0F6010300934FF07D004FF0B4014FF01B
:1039700040024FF01E03FDF7D1FD43F2FC43C0F6B9
:10398000010300934FF0D7004FF0B4014FF0400215
:103990004FF01E03FDF7C2FD4DF6F453C0F60003D1
:1039A00000934FF0C3004FF078014FF03C024FF00E
:1039B0001903FDF7B3FD4FF00000FDF737F84FF0A6
:1039C0000100FDF733F84FF00200FDF72FF841F644
:1039D0002473C2F200031A6841F62873C2F200038E
:1039E0001A6000BFD8E400BF80B58CB000AF78602B
:1039F00039604FF00003FB624FF00003BB624FF0F1
:103A000000037B624FF000033B624FF00003FB6159
:103A10007B68FB617B681B8A9BB2FB62FA6A4CF68F
:103A2000FF731340FB623B68DB88FA6A1343FB6257
:103A3000FB6A9AB27B681A827B689B899BB2FB62A5
:103A4000FA6A4EF6F3131340FB623B689A883B68B0
:103A50001B8913439AB23B685B8913439BB2FA6A92
:103A60001343FB62FB6A9AB27B689A817B689B8AEC
:103A70009BB2FB62FA6A4FF6FF431340FB623B685E
:103A80009B89FA6A1343FB62FB6A9AB27B689A824B
:103A900007F108031846FEF763FAFA694FF460531A
:103AA000C4F201039A4202D17B69BB6201E03B6927
:103AB000BB627B689B899BB29BB21BB2002B0FDA67
:103AC000BA6A13464FEA83039B184FEA83029A1897
:103AD0003B681B684FEA4303B2FBF3F37B620EE0E3
:103AE000BA6A13464FEA83039B184FEA83029A1877
:103AF0003B681B684FEA8303B2FBF3F37B627A6A8D
:103B000048F21F53C5F2EB13A3FB02134FEA531302
:103B10004FEA0313FB62FB6A4FEA13134FF0640290
:103B200002FB03F37A6AD31A3B627B689B899BB2E0
:103B30009BB21BB2002B12DA3B6A4FEAC30303F1BC
:103B4000320248F21F53C5F2EB13A3FB02134FEAF4
:103B5000531303F00703FA6A1343FB6211E03B6A55
:103B60004FEA031303F1320248F21F53C5F2EB137D
:103B7000A3FB02134FEA531303F00F03FA6A134334
:103B8000FB62FB6A9AB27B681A8107F13007BD4677
:103B900080BD00BF80B483B000AF78600B46FB707F
:103BA000FB78002B08D07B689B899BB243F40053C1
:103BB0009AB27B689A8107E07B689B899BB223F469
:103BC00000539AB27B689A8107F10C07BD4680BC0E
:103BD000704700BF80B483B000AF78600B467B8035
:103BE0007B884FEAC3534FEAD3539AB27B689A80DB
:103BF00007F10C07BD4680BC704700BF80B485B09C
:103C000000AF78600B467B804FF00003FB737B684E
:103C10001B889AB27B8813409BB2002B03D04FF0D5
:103C20000103FB7302E04FF00003FB73FB7B1846BC
:103C300007F11407BD4680BC704700BF80B483B055
:103C400000AF78607B6803F108027B685A607B688C
:103C50004FF0FF329A607B6803F108027B68DA60FC
:103C60007B6803F108027B681A617B684FF00002F1
:103C70001A6007F10C07BD4680BC704780B483B062
:103C800000AF78607B684FF000021A6107F10C0703
:103C9000BD4680BC704700BF80B485B000AF78607F
:103CA00039607B685B68FB603B68FA685A60FB6858
:103CB0009A683B689A60FB689B683A685A60FB6840
:103CC0003A689A603B687A681A617B681B6803F1FE
:103CD00001027B681A6007F11407BD4680BC70477B
:103CE00080B485B000AF786039603B681B68BB600A
:103CF000BB68B3F1FF3F03D17B681B69FB600DE03C
:103D00007B6803F10803FB6002E0FB685B68FB6013
:103D1000FB685B681A68BB689A42F6D9FB685A6808
:103D20003B685A603B685B683A689A603B68FA682F
:103D30009A60FB683A685A603B687A681A617B68E7
:103D40001B6803F101027B681A6007F11407BD4686
:103D500080BC704780B485B000AF78607B685B68DA
:103D60007A6892689A607B689B687A6852685A6041
:103D70007B681B69FB60FB685A687B689A4203D1C9
:103D80007B689A68FB685A607B684FF000021A6192
:103D9000FB681B6803F1FF32FB681A60FB681B6855
:103DA000184607F11407BD4680BC704780B485B043
:103DB00000AF786041F62C73C2F200031B68002B41
:103DC00008D141F62C73C2F2000346F2C072C2F26F
:103DD00000021A6041F62C73C2F200031B68FB60FC
:103DE00041F62C73C2F200031A687B68D21841F6C0
:103DF0002C73C2F200031A60FB68184607F114071F
:103E0000BD4680BC704700BF80B483B000AF78600F
:103E10004FF0FF33184607F10C07BD4680BC7047D2
:103E200080B483B000AF786039603B684FF40052D3
:103E30005A604FF00003184607F10C07BD4680BCDE
:103E4000704700BF80B483B000AF78604FF00103CB
:103E5000184607F10C07BD4680BC704780B485B09A
:103E600000AFF860B9607A604FF00003184607F1C0
:103E70001407BD4680BC704780B485B000AFF860C1
:103E8000B9607A604FF00003184607F11407BD4689
:103E900080BC704780B586B000AFF860B9607A60CA
:103EA0004FF000037B611AE07B69BA68D3181B7876
:103EB0004FF48840C4F200001946FFF78BFE00BFA4
:103EC0004FF48840C4F200004FF08001FFF796FEE7
:103ED0000346002BF4D07B6903F101037B617A690F
:103EE0007B689A42E0DB7B68184607F11807BD46FD
:103EF00080BD00BF80B500AF4FF00B004FF0010157
:103F0000FDF7D2FB03461A4641F62073C2F20003C6
:103F10001A6041F62073C2F200031B68002B00F008
:103F2000838041F62073C2F200031B6803F0010393
:103F3000002B27D041F62473C2F200031B6883F0E4
:103F4000010241F62473C2F200031A6041F62473A1
:103F5000C2F200031B68002B14D041F61473C2F2A6
:103F600000034FF000021A6041F61873C2F200031A
:103F70004FF000021A6041F61C73C2F200034FF0CA
:103F800000021A6041F62073C2F200031B6803F0BE
:103F90000203002B3CD041F62473C2F200034FF021
:103FA00001021A604FF0D7004FF00401FDF77CFBCF
:103FB00003461A4641F61C73C2F200031A6041F62A
:103FC0001C73C2F200031B684FEA13531A4641F6F2
:103FD0001473C2F200031A6041F61C73C2F20003AC
:103FE0001B684FEA23234FEA03524FEA125241F66D
:103FF0001873C2F200031A6041F61C73C2F2000388
:104000001B6803F00F0241F61C73C2F200031A6032
:1040100041F62073C2F200031B684FF00B004FF013
:1040200001011A46FDF712FB80BD00BF80B400AF4E
:10403000BD4680BC704700BF80B400AFFEE700BF44
:1040400080B400AFFEE700BF80B400AFFEE700BF62
:1040500080B400AFFEE700BF80B400AFBD4680BCB7
:10406000704700BF80B500AF4FF00200FEF72EFA98
:104070000346002B05D0FFF73DFF4FF00200FEF78F
:1040800051FA80BD80B500AF4FF00100FCF722F976
:104090000346002B0DD0FCF7EFF84FF00100FCF7C2
:1040A00049F9FCF7AFF8024646F2B033C2F200031A
:1040B0001A6080BD80B582B000AFFDF7B1FA4FF055
:1040C00003004FF001014FF00202FDF7BFFA4FF07D
:1040D00000037B6003E07B6803F101037B607A6887
:1040E0004BF61F73C0F202039A42F4D94FF004005A
:1040F0004FF001014FF00C02FDF7A8FA4FF00A0053
:104100004FF001014FF00702FDF7A0FA4FF0200039
:104110004FF001014FF06902FDF798FA4FF00003EC
:104120007B6003E07B6803F101037B607A6848F6FB
:104130009F439A42F6D94FF021004FF001014FF012
:104140000102FDF783FA4FF041004FF001014FF0FB
:10415000F502FDF77BFA4FF04A004FF001014FF0F6
:104160000102FDF773FA4FF04B004FF001014FF0E1
:104170000102FDF76BFA4FF04B004FF001014FF0D9
:104180000002FDF763FA4FF056004FF001014FF0C7
:104190000702FDF75BFA4FF058004FF001014FF0B6
:1041A0000102FDF753FA4FF040004FF001014FF0CC
:1041B0000102FDF74BFA4FF00B004FF001014FF0F9
:1041C000FF02FDF743FA4FF009004FF001014FF0F5
:1041D0000302FDF73BFA07F10807BD4680BD00BFAB
:1041E00080B485B000AFF860B9607A60FB68A3F175
:1041F0000403FB60FB684FF080721A60FB68A3F158
:104200000403FB60BA68FB681A60FB68A3F104034F
:10421000FB6044F24523C0F60003FA681360FB68B4
:10422000A3F11403FB607A68FB681A60FB68A3F1D2
:104230002003FB60FB68184607F11407BD4680BCED
:10424000704700BF80B500AF00F086F8FEE700BF02
:10425000064B19680868B0E8F00F80F309884FF042
:10426000000080F311884EF00D0E7047181E0020DC
:1042700003480068006880F3088862B600DF00BF6A
:1042800008ED00E080B500AF4EF62053CEF20003FB
:104290004EF62052CEF20002126842F47F021A60FB
:1042A0004EF62053CEF200034EF62052CEF200021C
:1042B000126842F07F421A6000F090F841F24453D5
:1042C000C2F200034FF000021A60FFF7D1FF4FF077
:1042D0000003184680BD00BF80B400AF4EF6045303
:1042E000CEF200034FF080521A60BFF34F8FBFF33E
:1042F0006F8FBD4680BC704780B500AF00F02CF8D2
:1043000041F24453C2F200031B6803F1010241F27F
:104310004453C2F200031A60BFF34F8FBFF36F8F95
:1043200080BD00BF80B500AF41F24453C2F200032C
:104330001B6803F1FF3241F24453C2F200031A60DA
:1043400041F24453C2F200031B68002B03D14FF02B
:10435000000000F00BF880BDEFF311804FF0BF01BB
:1043600081F3118870474FF00003184680F31188DD
:10437000704700BFEFF309800C4B1A6820E9F00F7B
:1043800010602DE908404FF0BF0080F31188FEF760
:1043900043FC4FF0000080F31188BDE80840196825
:1043A0000868B0E8F00F80F309887047181E0020F5
:1043B00080B500AFFFF7D0FFFEF716FB0346002BDA
:1043C00006D04EF60453CEF200034FF080521A602E
:1043D0004FF00000FFF7CAFF80BD00BF80B400AF00
:1043E0004EF21403CEF2000341F63F12C0F2010276
:1043F0001A604EF21003CEF200034FF007021A606B
:10440000BD4680BC704700BF80B483B000AF786009
:104410004FF46D43CEF200037A6842F0BF6242F47B
:104420000032DA6007F10C07BD4680BC704700BF60
:1044300080B487B000AF78604FF000037B614FF02D
:1044400000033B614FF00F03FB607B68DB78002BC0
:1044500047D04FF46D43CEF20003DB686FEA0303ED
:1044600003F4E0634FEA13237B617B69C3F1040328
:104470003B617B69FA6822FA03F3FB607B685B7837
:104480001A463B6902FA03F37B617B689B781A4604
:10449000FB6813407A6913437B617B694FEA03131E
:1044A0007B614FF46143CEF200037A6812781146C3
:1044B0007A69D2B25B1883F800234FF46143CEF2DD
:1044C00000037A6812784FEA5212D2B279680978FA
:1044D00001F01F014FF0010000FA01F143F8221032
:1044E00014E04FF46143CEF200037A6812784FEA89
:1044F0005212D2B27968097801F01F014FF0010021
:1045000000FA01F102F1200243F8221007F11C0722
:10451000BD4680BC704700BF80B485B000AF7860F6
:1045200039604FF00003FB817B681B88FB81FB89AE
:1045300003F44153FB813B681A883B685B88134353
:104540009AB23B689B8813439AB23B68DB8813435B
:104550009AB23B681B8913439AB23B685B89134349
:104560009AB23B689B8913439AB23B68DB89134339
:104570009AB2FB891343FB817B68FA891A807B68B6
:104580009B8B9BB223F400639AB27B689A833B684F
:104590001A8A7B681A8207F11407BD4680BC7047EF
:1045A00080B483B000AF78600B46FB70FB78002BC3
:1045B00008D07B681B889BB243F040039AB27B68AB
:1045C0001A8007E07B681B889BB223F040039AB2F5
:1045D0007B681A8007F10C07BD4680BC704700BF9E
:1045E00080B483B000AF78607B689B899BB218462B
:1045F00007F10C07BD4680BC704700BF80B483B094
:1046000000AF78600B46FB70FB78002B08D07B680E
:104610009B889BB243F004039AB27B689A8007E0C0
:104620007B689B889BB223F004039AB27B689A80D4
:1046300007F10C07BD4680BC704700BF80B485B051
:1046400000AF78600B467B804FF00003FB737B6804
:104650001B899AB27B8813409BB2002B03D04FF08A
:104660000103FB7302E04FF00003FB73FB7B184672
:1046700007F11407BD4680BC704700BF80B584B009
:1046800000AF78604FF00003FB607B6803F0070326
:10469000002B05D07B6823F0070303F108037B6040
:1046A000FEF7CCF846F23433C2F200031B68002B4D
:1046B00008D1214B23F007031A4646F23433C2F2E5
:1046C00000031A6046F23033C2F200031A687B68B6
:1046D000D21844F2F7339A4225D846F23033C2F268
:1046E00000031A687B68D21846F23033C2F2000326
:1046F0001B689A4217D946F23433C2F200031A6893
:1047000046F23033C2F200031B68D318FB6046F256
:104710003033C2F200031A687B68D21846F2303395
:10472000C2F200031A60FEF79BF8FB68184607F117
:104730001007BD4680BD00BF381F002080B483B085
:1047400000AF786007F10C07BD4680BC704700BF22
:1047500080B500AF4FF00100FCF7E6FF4FF001001D
:10476000FDF7A8FB00BF4FF04100FDF77DFD0346BC
:10477000002BF8D04FF48070FDF7CCFB4FF0010018
:10478000FDF7DEFBFBF788FDFBF776FD47F6FF70D4
:10479000FBF754FDFBF770FD4FF001004FF00101F6
:1047A000FBF7D8FCFBF768FDFDF7A6FD80BD00BF59
:1047B00080B586B002AF46F2B033C2F200031A6889
:1047C00048F68903C8F68803A3FB02134FEA531186
:1047D0000B464FEA03135B1A4FEA8303D31AFB60BD
:1047E00046F2B033C2F200031B6848F68902C8F6ED
:1047F000880282FB0312D2184FEA62124FEAE37377
:10480000D31ABB60BB6848F68902C8F6880282FBEF
:104810000312D2184FEA62124FEAE373D31A7B6095
:10482000BA6848F68903C8F68803A3FB02134FEA67
:1048300053110B464FEA03135B1A4FEA8303D31A53
:10484000BB60FB68009341F24850C2F2000044F2A2
:10485000FC31C0F601017A68BB6800F0DFFA07F1AD
:104860001007BD4680BD00BF80B483B000AF4FF4D9
:10487000A843C4F200039B8A9BB27B604FF4A84319
:10488000C4F200031B8B9BB24FEA03437A681343C5
:104890007B607B68184607F10C07BD4680BC7047FB
:1048A00080B483B000AF4FF48053C4F202034FF4DE
:1048B0008052C4F20202926942F011029A614FF4EE
:1048C0008053C4F202034FF48052C4F20202D26950
:1048D00042F40012DA614FF00003C4F201034FF01A
:1048E0000002C4F20102526842F002025A604FF420
:1048F0004063C4F201034FF44062C4F20102526803
:1049000042F0FF025A604FF4A843C4F200034FF490
:1049100000421A804FF064037B6003E07B6803F180
:10492000FF337B607B68002BF8D14FF4A843C4F2BF
:1049300000034FF000021A804FF4A843C4F20003B2
:104940004FF001021A804FF4A843C4F200034FF065
:1049500024029A804FF4A843C4F200034FF00002EF
:104960001A804FF4A843C4F200034FF025021A84C2
:104970004FF4A843C4F200034FF05A029A834FF455
:10498000A843C4F200034FF4A842C4F20002128804
:1049900092B242F4806242F0010292B21A804FF465
:1049A000A843C4F2000344F2A0021A8107F10C07E5
:1049B000BD4680BC704700BF80B500AF4FF4A84330
:1049C000C4F200034FF4A842C4F20002128892B26B
:1049D00042F4807292B21A8000BFFFF745FF03468F
:1049E00003F00103002BF8D080BD00BF80B500AFFD
:1049F0004FF4A843C4F200034FF4A842C4F20002EB
:104A0000128892B242F4007292B21A8000BFFFF78D
:104A10002BFF034603F40033002BF8D180BD00BF09
:104A200080B582B000AF0346FB714FF4A843C4F2D7
:104A30000003FA7992B21A8200BFFFF715FF03460E
:104A400003F00203002BF8D007F10807BD4680BD34
:104A500080B582B000AF0346FB714FF4A843C4F2A7
:104A60000003FA7992B21A8200BFFFF7FDFE0346F7
:104A700003F00403002BF8D007F10807BD4680BD02
:104A800080B582B000AF78607B68002B0ED04FF409
:104A9000A843C4F200034FF4A842C4F200021288F3
:104AA00092B242F4806292B21A800DE04FF4A843B1
:104AB000C4F200034FF4A842C4F20002128892B27A
:104AC00022F4806292B21A8000BFFFF7CDFE034647
:104AD00003F04003002BF8D04FF4A843C4F20003C6
:104AE0001B8A9BB2DBB2184607F10807BD4680BDA2
:104AF0000F2A2DE9F00340F2A18041EA00039B0751
:104B000040F09E800C68A2F1100504604B68AC4632
:104B100043608C68BCF10F0F8460CC68C5F300154E
:104B2000C46000F1100301F110042BD975B12568A0
:104B3000ACF1100C1D6065685D60A5689D60E5685E
:104B40001034DD601033BCF10F0F1BD9276804F15E
:104B500010061F60676803F110055F60A768ACF17D
:104B6000200C9F60E768DF6024691C61776806F1AC
:104B700010046F60B7682033AF60F668BCF10F0FA8
:104B8000EE60E3D8A2F1100828F00F0302F00F0442
:104B900003F1100C032C00EB0C0301EB0C0851D9B2
:104BA000211F4FEA9109444608EB890C54F8046B25
:104BB000C8EB0C010CF1040C1D46644545F8046B70
:104BC000C1F3800112D029B154F8041B644545F8A3
:104BD000041B0BD0274657F8041B2E4646F8041B2F
:104BE00064686C603C1D351D6445F3D109F1010C0E
:104BF0004FEA8C0902F0030208EB09014B44D2B1E1
:104C00000D789A18DC4303F8015B1419934204F001
:104C1000010410D02CB111F8014F03F8014B93425D
:104C200009D04D781C4604F8015B8D7802315D7027
:104C3000631C9342F5D1BDE8F00370470346DEE7FD
:104C40000346DDE741462246D9E700BFF0B48407BA
:104C5000034600F08D80541E002A00F08780E5078F
:104C6000CEB211D41A4602F8016B134615469207CC
:104C700010D0621E002C79D003F8016B14469A07FD
:104C80001D4607D0013CEDE7034603F8016B9A0788
:104C90001D46F7D1032C52D9CEB246EA06270F2C77
:104CA00047EA07432DD9A4F1100217460F2FC2F38C
:104CB00000162B606B60AB60EB6005F1100216D93B
:104CC0003EB1103F136053609360D36010320F2FDA
:104CD0000DD9203F02F11006136053609360D3603A
:104CE000136153619361D36120320F2FF1D8A4F186
:104CF000100222F00F0204F00F041032032C1544AE
:104D00001DD9271F3E462A46032E42F8043BC7F30F
:104D100080070DD927B1043E032E42F8043B07D982
:104D2000174647F8043B083E53603A1D032EF7D858
:104D3000231F23F00302131D04F00304ED18ACB18C
:104D4000C9B2EA432C1905F8011BA318A54203F0C8
:104D500001020BD01AB105F8011BA54206D02B4663
:104D600003F8011B69705D1CA542F8D1F0BC7047C7
:104D7000054614468EE700BF0FB410B541F6881300
:104D800082B004ACC2F2000354F8042B1868234626
:104D90008168019401F008FE02B0BDE8104004B043
:104DA000704700BF70B5054688B008460C4600F055
:104DB0005DF8144B02461868561C83680592124A27
:104DC00099890692012201F40050079204AA0192E7
:104DD00000B2022204940396029230B9586E41F454
:104DE000005120F4005299815A662846A96801AA08
:104DF00005F032F900280CBF0A204FF0FF3008B050
:104E000070BD00BF881900201444010841F68813C2
:104E1000C2F2000301461868FFF7C4BF0EB4F0B534
:104E20009CB021AC54F8042B41F688136FF0004578
:104E3000C2F20003064602A90495079518684FF4CC
:104E4000027723464FF6FF75ADF81470029606966A
:104E5000ADF81650019400F039F8029900220A705A
:104E60001CB0BDE8F04003B0704700BF20F0030164
:104E700010F00300C0F1000051F8043B00F1040CF5
:104E80004FEACC0C6FF000021CBF22FA0CF2134365
:104E90004FF0010C4CEA0C2C4CEA0C4CA3EB0C022E
:104EA00022EA030212EACC1204BF51F8043B043098
:104EB000F4D013F0FF0F1FBF013013F47F4F013008
:104EC00013F47F0F18BF0130704700BF2DE9F04F7A
:104ED000C3B08B46109314460C9005F0AFFA0068EF
:104EE000002600271490CDE91667FFF7BFFFBBF837
:104EF0000C30189003F0800001B221B1DBF81020D3
:104F0000002A01F0CA82002732AEDFF820951197FF
:104F10000896259627972697A24619971A970F97CE
:104F20009AF80040002C00F0A281252C00F09F810F
:104F30000AF1010301E0252D04D01D781C46013340
:104F4000002DF8D1CAEB04057DB1269A2798531C91
:104F50004119072BC6F800A075602791269300F32E
:104F6000698108360F9F7F190F972078002800F07D
:104F70006981002104F1010A94F801804FF0FF34A7
:104F80000D918DF8731009910A9420202B210AF1BC
:104F9000010AA8F12002582A00F25D82DFE812F02F
:104FA00074025B025B027E025B025B025B025B02DD
:104FB0005B025B02B901C5015B024301CA015B02EE
:104FC00085028C028C028C028C028C028C028C0278
:104FD0008C028C025B025B025B025B025B025B0287
:104FE0005B025B025B025B02870088015B02880157
:104FF0005B025B025B025B02F8015B025B026D001D
:105000005B025B025B025B025B0259005B025B02BC
:10501000FF015B025B025B025B025B025B025B0205
:105020005B025B025B02E6018B008801880188015C
:10503000AA028B005B025B02D7025B029D02710039
:105040001F0234025B02B1025B025D005B025B0285
:105050004802099D45F010020992099B990600F14A
:105060000882099CE20641F19180109F3D683B1D3A
:1050700010932C460123002516E1099A42F01001F5
:105080000991099B13F0200340F00481099C14F05E
:10509000100040F06187099D15F0400300F05C8727
:1050A000109F03463A1D3C8800251092FCE0099DA4
:1050B00045F010030993099FBF0640F1DA80109C68
:1050C000E01D20F00705D5E90023083510951446AA
:1050D0001D46002A73F10000C0F2358701230A9FA4
:1050E000002F03DB099921F08000099054EA0500A4
:1050F00040F0EF830A9A002A40F0EB83002B40F047
:105100005886099BDA0741F1178042AF3021089891
:1051100007F8411DC21B0E920A990E98002488427E
:10512000B8BF08469DF873300B901291159413B1D7
:105130000B9B5A1C0B92099810F002010A9102D0A5
:105140000B9A941C0B94099B13F08400139040F06D
:1051500028820D9D0B996D1A002D40F32282102D8F
:1051600041F31482279A269B44F26C401024C0F627
:10517000010086E811001119A7485A1CA5F1110E6B
:10518000072A1B9027912692CEF3001300F36C851B
:105190000836103D102D40F3F8818BB1013244F2F6
:1051A0006C431031C0F60103072A86E818002791E6
:1051B000269200F368850836103D102D40F3E581F6
:1051C00033462E463D460C9F13E00833013244F22D
:1051D0006C401031C0F60100103E072A83E8110030
:1051E0002791269200F3BF81103E0833102E40F322
:1051F000C981013244F26C401031C0F60100072A27
:1052000083E8110027912692DFDD3846594625AA0A
:1052100006F02EFDE8B92799269A32ABD6E70D9C09
:10522000109267420D97099B43F0040209929AF885
:105230000080ACE60C98594625AA06F019FD40B945
:1052400032AE8FE6279C24B10C98594625AA06F069
:105250000FFDBBF80C100F9C01F040031AB2002A9E
:1052600018BF4FF0FF34204643B0BDE8F08F5446DE
:105270007BE60999CD0600F15986099C640640F148
:1052800055861098B0F90040021DE51710922B4684
:1052900022461EE7109BDF1D27F0070202F10801DE
:1052A00010910023D2E9004500208DF8730016E725
:1052B000109DEF1D27F007010D684C680831109113
:1052C00028462146CDE916012146284606F040FC35
:1052D00001282146284640F040870022002307F09D
:1052E00033FC002841F0F8819DF8733000274B4AC9
:1052F000099912974A4F03200B90B8F1470FD8BF76
:10530000174621F080040320002209940E90159284
:105310000DE7109A109B17681A1D002F0D97FFF6C6
:105320007EAF9AF80080109231E68DF873109AF8EB
:1053300000802CE6544614F8018BB8F12A0F01F0D6
:10534000F482A8F130030022092B01F23E8214F806
:10535000018B02EB820703EB4702A8F13003092B14
:10536000A246F4D942EAE2740A9412E61099109C1B
:1053700008680127221D00230B970E9710928DF8C5
:10538000A0008DF8733028AF002312931593D2E656
:10539000099C44F0080309939AF80080F7E50999FD
:1053A000204D8F06199548D5109FFA1D22F007034E
:1053B00003F108041094D3E900450999C80740F1A6
:1053C000448454EA050000F04084302041F0020794
:1053D0008DF874008DF875800997022364E71098A2
:1053E0000999109D071D104841F002034FF07808FD
:1053F00030222C680993109700258DF874208DF8C1
:105400007580199002234FE7099B43F0200209920F
:105410009AF80080BBE500BF6C44010818440108FD
:105420001C440108284401083C4401085C4401086C
:1054300009999B4D8F061995B6D40998C50600F1B8
:105440009285099F7C0640F18E85109A0025131DD8
:1054500014881093B1E7B8F1000F3FF4F3AE0122C6
:1054600000240B928DF8A0808DF873400E9228AF27
:105470008AE7109C0123E01D20F0070505F10807CD
:105480001097D5E900450FE79DF87330002B40F0E9
:1054900095868DF873009AF8008078E5099C44F0B1
:1054A000010709979AF8008071E5099F47F080038A
:1054B00009939AF800806AE557460022A8F1300562
:1054C00017F8018B02EB8203A8F13004092C05EBDD
:1054D0004302BA46F2D90D925BE5099CA40640F15D
:1054E0006186109F0F983B68C417043718605C6092
:1054F000109715E5099A42F0400309939AF8008045
:1055000045E5109B00248DF873401F681D1D002F7A
:1055100001F0C5800A9938460029C1F2028021466F
:105520000A9A05F09DFA002801F042810A99C01BF1
:1055300088420E90129440F3A687129821EAE174F3
:105540000B949DF8733010950E911590EFE59AF835
:1055500000805246B8F16C0F00F0DE86099F47F0DC
:105560001003099313E53846594625AA06F080FB37
:1055700000287FF46EAE103E102E32AB2799269A8B
:105580003FF737AE2F4635461E464C191B9B511C24
:10559000072986E828002794269100F30F8408360F
:1055A00000E0279C9DF8730068B1269B0134591CCC
:1055B00001200DF173020729326070602794269153
:1055C00000F3058308360A9B63B126990234481C10
:1055D00002231DAA0728326073602794269000F3E7
:1055E00001830836139D802D00F02E82129D0E9BA4
:1055F000ED1A002D75DD102D40F3F385269A10234A
:1056000001322848A5F1110EE418072AC6F80090C7
:1056100073600A9027942692CEF3001C00F3AC82AC
:105620000836103D102D51DDBCF1000F0DD00132B8
:105630001034072AC6F8009073602794269200F36E
:10564000AD820836103D102D40DD31463E460C9FA0
:105650000EE0083101321034103D072AC1F80090E5
:105660004B60269227941FDC103D0831102D2BDD56
:1056700001321034072AC1F800904B60279426921B
:10568000E7DD3846594625AA069306F0F1FA069B4F
:1056900000287FF4DEAD279C269A32A9DAE700BF06
:1056A0003C4401085C4401083846594625AA069343
:1056B00006F0DEFA069B00287FF4CBAD103D102DDE
:1056C00032A9279C269AD3DC37460E46501C0A9BEB
:1056D0006419072886E828002794269000F36C8236
:1056E0000836099BDB0500F11E8126980E9A37606B
:1056F000411C0E9FA418072977602794269100F378
:10570000A8800836099F7B0740F1B1800D9D0B9B57
:10571000ED1A002D40F3AB80102D40F3CC87269876
:105720001027431CB24944F26C40A5F1110CE41956
:10573000C0F60100072B86E8810009912794269383
:10574000CCF3001800F3BB830836103D102D40F356
:10575000AD80B8F1000F11D0013344F26C40103429
:10576000C0F60100072B86E881002794269300F3FA
:10577000D1830836103D102D40F39880DDF830803D
:1057800012E00836013344F26C401034C0F60100D8
:10579000103D072B86E881002693279477DC103D87
:1057A0000836102D40F38280013344F26C421034ED
:1057B000C0F60102072B86E8840027942693E0DDDB
:1057C0004046594625AA06F053FA00287FF441AD19
:1057D000279C269B32AED5E71199269D01340135D1
:1057E000012940F379840123072D376073602794E2
:1057F000269500F38784083618990135149A6418A1
:10580000072D326071602794269500F3888408364E
:10581000DDE916010022002307F08CF9002840F092
:10582000D982119801370138241801353760072DC6
:1058300070602794269500F3898108361A9F0135F8
:10584000E41921AB072D86E88800279426957FF779
:1058500058AF0C98594625AA06F00AFA00287FF49A
:10586000F8AC099F32AE7B07279C3FF54FAF0F9EE8
:105870000B980D9FB842ACBF3618F6190F96002C46
:1058800040F070810026269632AEFFF749BB4046B5
:10589000594625AA06F0ECF900287FF4DAAC103D51
:1058A000102D32AE279C269B3FF77EAF5A1C099FD6
:1058B0002C19072A3760756027942692D7DD0C983B
:1058C000594625AA06F0D4F900287FF4C2AC279CDB
:1058D000CDE7012B00F0AB81022B0DF1C70E00F0DC
:1058E0008C810723E70804EA0300E90847EA4574C6
:1058F00030300D46C2B254EA050177468EF80020DA
:105900000EF1FF3EEED109983B46C10706D5302A7D
:1059100000F096813024774603F8014C0899CA1BA1
:105920000E92FFF7F9BBB8F1650F7FF755AFDDE9D0
:1059300016010022002307F0FDF8002800F0B281D4
:1059400026982C49431C01340122072B31607260D8
:105950002794269300F34A8408361E98119FB84274
:1059600003DB099BDF077FF5CDAE269A149F1899BC
:105970003760501C189F641807287760279426907A
:1059800000F375850836119D013D002D7FF7BAAEF5
:10599000102D40F38682269A119B1027A3F1120E38
:1059A0001548531CE419072BC6F8009077600A903D
:1059B00027942693CEF3001800F317860836103D7F
:1059C000102D40F37182B8F1000F0ED00133103466
:1059D000072BC6F8009077602794269300F32B8658
:1059E0000836103D102D40F35F82DDF8308016E060
:1059F0006C440108584401085C44010808364B1CFB
:105A00001034103D072BC6F800907760269327943A
:105A100000F31E810836103D102D40F34582591CBD
:105A200010340729C6F80090776027942691E5DDA9
:105A30004046594625AA06F01BF900287FF409AC18
:105A4000279C269932AEDAE70D980B99451A002D5E
:105A50007FF7CCAD102D40F38886269A10230132B3
:105A60008F48A5F11101E418072AC6F80090736069
:105A70000A9027942692C1F3001C00F31B8308367A
:105A8000103D102D4ADDBCF1000F0DD00132103455
:105A9000072AC6F8009073602794269200F32483A7
:105AA0000836103D102D39DD21460C9C0EE00836DD
:105AB00001321031103D072AC6F80090736026921B
:105AC00027911ADC103D0836102D26DD01321031E9
:105AD000072AC6F80090736027912692E7DD2046DA
